:100000000C94AD000C94D5000C94D5000C94D50044
:100010000C94D5000C94D5000C94D5000C94D5000C
:100020000C94D5000C94D5000C94D5000C94D500FC
:100030000C94D5000C94D5000C94D5000C94D500EC
:100040000C9460040C94D5000C942E040C940804B9
:100050000C94D5000C94D5000C94D5000C94D500CC
:100060000C94D5000C94D5005A737574457468656A
:10007000726E65745544503A3A626567696E5061B4
:10008000636B657428636F6E73742063686172209C
:100090002A686F73742C2075696E7431365F742012
:1000A000706F7274293B206973206E6F74207375B2
:1000B00070706F727465642120536F7272792100C1
:1000C0002E004D7920495020616464726573733A43
:1000D00020005D0032303A32323A3532002C2000B6
:1000E0004A616E2032332032303232002C200043FD
:1000F0003A5C55736572735C4D696B6F6C616A5CD9
:10010000446F63756D656E74735C41726475696E7E
:100110006F5C546865726D6F73746174426564726C
:100120006F6F6D5C546865726D6F73746174426556
:1001300064726F6F6D2E696E6F005A7375742065EF
:100140007468207564702073657276657220696EBC
:1001500069742E2E2E205B00AA0411241FBECFEF3F
:10016000D8E0DEBFCDBF11E0A0E0B1E0E4EFFFE0FA
:1001700002C005900D92AC36B107D9F722E0ACE68B
:10018000B1E001C01D92AB35B207E1F710E0CDEA56
:10019000D0E004C02197FE010E94F207CC3AD107BB
:1001A000C9F70E941D050C94F8070C940000AF924B
:1001B000BF92CF92DF92EF92FF920F931F93CF9354
:1001C000DF936C017B018B01040F151FEB015E01B6
:1001D000AE18BF08C017D10759F06991D601ED914B
:1001E000FC910190F081E02DC6010995892B79F7EA
:1001F000C501DF91CF911F910F91FF90EF90DF909C
:10020000CF90BF90AF900895FC01538D448D252F62
:1002100030E0842F90E0821B930B541710F0CF96A0
:10022000089501970895FC01918D828D981761F0D2
:10023000A28DAE0FBF2FB11D5D968C91928D9F5FE9
:100240009F73928F90E008958FEF9FEF0895FC01C8
:10025000918D828D981731F0828DE80FF11D858D7B
:1002600090E008958FEF9FEF0895FC01918D228D0E
:10027000892F90E0805C9F4F821B91098F73992793
:1002800008958DE791E00E94350121E0892B09F462
:1002900020E0822F089580E090E0892B29F00E94D1
:1002A000410181110C9400000895FC01A48DA80F58
:1002B000B92FB11DA35ABF4F2C91848D90E00196A8
:1002C0008F739927848FA689B7892C93A089B189C8
:1002D0008C91837080648C93938D848D981306C069
:1002E0000288F389E02D80818F7D80830895EF92CD
:1002F000FF920F931F93CF93DF93EC0181E0888FE0
:100300009B8D8C8D98131AC0E889F989808185FFAF
:1003100015C09FB7F894EE89FF896083E889F98951
:1003200080818370806480839FBF81E090E0DF9153
:10033000CF911F910F91FF90EF900895F62E0B8DA6
:1003400010E00F5F1F4F0F731127E02E8C8D8E1161
:100350000CC00FB607FCFACFE889F989808185FFC8
:10036000F5CFCE010E945501F1CFEB8DEC0FFD2FA3
:10037000F11DE35AFF4FF0829FB7F8940B8FEA8983
:10038000FB8980818062CFCFEF92FF920F931F9302
:10039000CF93DF938C017B01D0E0C0E0F701EC0F3D
:1003A000FD1F6491662339F0C8010E947701892BF3
:1003B00011F02196F3CFCE01DF91CF911F910F91D4
:1003C000FF90EF900895CF93DF93EC01888D882301
:1003D000B9F0AA89BB89E889F9898C9185FD03C0A8
:1003E000808186FD0DC00FB607FCF7CF8C9185FF8D
:1003F000F2CF808185FFEDCFCE010E945501E9CF7C
:10040000DF91CF91089566B747B728B739B770E045
:1004100090E080E0962F882777276627842B632B30
:10042000722B089581E0089587E08CBF95EE9BBF05
:100430001ABE8CBF86EE8BBF1ABE089590E080E096
:10044000089597E09CBF87EE8BBF2AB79CBF88EECC
:100450008BBF8AB7322F282F9CBF85EE8BBF8AB700
:100460009CBF96EE9BBF9AB7892798278927821B46
:10047000930B4817590708F4CA01A9014751584F6F
:10048000FB01DB01A80FB91FEA17FB0739F05CBFBE
:100490004BBF6AB761934F5F5F4FF6CF280F391F8D
:1004A00047E04CBF57EE5BBF3ABF4CBF38EE3BBF97
:1004B0002ABF0895CF93DF931F92CDB7DEB7DC013B
:1004C000ED91FC91028CF38DE02D41E050E0BE01F6
:1004D0006F5F7F4F09951816190634F4898190E0F3
:1004E0000F90DF91CF9108958FEF9FEFF9CFFC012F
:1004F00097E09CBF85EE8BBF8AB79CBF26EE2BBFD3
:100500006AB79CBF27EE2BBF2AB79CBF98EE9BBF54
:100510003AB71CBE90E19BBF9AB71CBE4FE04BBFE1
:100520004AB71CBE5EE05BBF5AB71CBE7DE07BBF16
:100530007AB7708B518B428B938B1CBE91E19BBF22
:100540004AB71CBE92E19BBF9AB7542F492F558BD7
:10055000448B982F862F232732272327821B930B28
:1005600008951CBE83E18BBF8AB71CBE94E19BBF7C
:100570009AB7892798278927FB019C012B5E3F4F5B
:10058000DB01A40FB51FEA17FB0739F061913CBFEF
:100590002BBF6ABF2F5F3F4FF6CF480F591F1CBEBE
:1005A00083E18BBF5ABF1CBE84E18BBF4ABF90E082
:1005B00080E00895CF93DF931F92CDB7DEB76983B4
:1005C000DC01ED91FC910280F381E02D41E050E0EF
:1005D000BE016F5F7F4F09950F90DF91CF91089516
:1005E0001CBE1BBE8FEF8ABF1CBE1BBE82E08ABF33
:1005F00090E080E00895FB01328123819481858120
:100600001CBE1BBE61E06ABF1CBE6DE06BBF3ABF83
:100610001CBE3EE03BBF2ABF1CBE2FE02BBF9ABFD3
:100620001CBE90E19BBF8ABF1CBE81E18BBF5ABF3D
:100630001CBE82E18BBF4ABF81E090E0089508951F
:10064000DC01ED91FC91008CF18DE02D09941CBE34
:100650008BE08BBF7ABF1CBE8CE08BBF6ABF1CBE19
:100660001BBE83E08ABF81E00895FC0184899589DF
:1006700008952EE331E0FC0131832083FB014089A2
:10068000518962897389FC01428353836483758332
:100690000895DC01ED91FC91028CF38DE02D09941D
:1006A00090E080E00895FB0101900020E9F7319788
:1006B000AF01461B570BDC01ED91FC910280F381E9
:1006C000E02D09948F929F92AF92BF92EF92FF928A
:1006D0000F931F93CF93DF93CDB7DEB7A1970FB6DC
:1006E000F894DEBF0FBECDBF7C01FA01CB0119A289
:1006F000223008F42AE08E010F5D1F4F822E912CCC
:10070000B12CA12CBF01A50194010E94D007F901D1
:10071000CA016A300CF5605DD8016E938D01232B00
:10072000242B252B79F790E080E0109721F0BD0174
:10073000C7010E945303A1960FB6F894DEBF0FBE07
:10074000CDBFDF91CF911F910F91FF90EF90BF90A0
:10075000AF909F908F900895695CDECF8F929F92AB
:10076000AF92BF92CF92DF92EF92FF920F931F93BF
:10077000CF93DF937C01EB016C0182E0C80ED11CAA
:100780004701E5E08E0E911C10E000E0F60141917A
:100790006F0150E070E060E02AE0CE010E94620349
:1007A0005C01E881F9810190F081E02D6EE2CE01DB
:1007B00009958A0D9B1D080F191FC814D90431F71C
:1007C000F701458150E070E060E02AE0CE010E9430
:1007D0006203800F911FDF91CF911F910F91FF90C6
:1007E000EF90DF90CF90BF90AF909F908F90089543
:1007F00068E670E08DE791E00E94C40160E471E07A
:100800008DE791E00E945303989590E080E0089571
:100810001F920F920FB60F9211242F933F934F9375
:100820005F936F937F938F939F93AF93BF93EF9358
:10083000FF938DE791E00E945501FF91EF91BF91E9
:10084000AF919F918F917F916F915F914F913F9168
:100850002F910F900FBE0F901F9018951F920F921F
:100860000FB60F9211242F938F939F93EF93FF93C3
:10087000E0918D01F0918E018081E0919301F091E2
:10088000940182FD1BC09081809196018F5F8F73D0
:1008900020919701821741F0E0919601F0E0E35832
:1008A000FE4F958F80939601FF91EF919F918F91CD
:1008B0002F910F900FBE0F901F9018958081F4CF4D
:1008C0001F920F920FB60F9211242F933F938F9385
:1008D0009F93AF93BF938091710190917201A0910A
:1008E0007301B09174013091700123E0230F2D3713
:1008F00058F50196A11DB11D2093700180937101DF
:1009000090937201A0937301B093740180916C0174
:1009100090916D01A0916E01B0916F010196A11DA2
:10092000B11D80936C0190936D01A0936E01B09303
:100930006F01BF91AF919F918F913F912F910F9038
:100940000FBE0F901F90189526E8230F0296A11D49
:10095000B11DD2CFEDE7F1E01382128248EE53E0F1
:1009600060E070E0448355836683778384E091E0A0
:100970009183808385EC90E09587848784EC90E078
:100980009787868780EC90E0918B808B81EC90E05C
:10099000938B828B82EC90E0958B848B86EC90E03D
:1009A000978B868B118E128E138E148EEAE1F2E0F5
:1009B0008EE391E0918380831282138214821582E8
:1009C000E8E2F2E09183808312821382148215821E
:1009D000E0E2F2E091838083128213821482158216
:1009E000EEE2F2E0918380831282138214821582F8
:1009F000E4E3F2E0918380831282138214821582F1
:100A0000E5E5F2E0918380831282138214821582DD
:100A1000EAE3F2E01382128244835583668377838C
:100A200026E131E03183208397878687108A118AF7
:100A3000128A138A84E0808F0895CF93DF93CDB715
:100A4000DEB72A970FB6F894DEBF0FBECDBF7894FD
:100A500084B5826084BD84B5816084BD85B58260C3
:100A600085BD85B5816085BD80916E008160809374
:100A70006E001092810080918100826080938100DD
:100A800080918100816080938100809180008160ED
:100A9000809380008091B10084608093B100809148
:100AA000B00081608093B00080917A008460809370
:100AB0007A0080917A00826080937A0080917A0037
:100AC000816080937A0080917A00806880937A00B8
:100AD0001092C100E0918D01F0918E0182E080833F
:100AE000E0918901F0918A011082E0918B01F091EF
:100AF0008C0180E1808310929501E0919101F09149
:100B0000920186E08083E0918F01F09190018081D5
:100B100080618083E0918F01F091900180818860F5
:100B20008083E0918F01F0919001808180688083C3
:100B3000E0918F01F091900180818F7D80836AE345
:100B400071E08DE791E00E94C4016FEE70E08DE7E7
:100B500091E00E94C4016CEE70E08DE791E00E948C
:100B6000C40160EE70E08DE791E00E94C4016DED7C
:100B700070E08DE791E00E94C40164ED70E08DE7C4
:100B800091E00E94C40162ED70E08DE791E00E9467
:100B9000C40160E471E08DE791E00E94530388E0B6
:100BA0008093220280932302809324028093250263
:100BB00062EC70E08DE791E00E94C4017E0183E069
:100BC000E80EF11C8E01095F1F4FFAE0AF2EA9E07D
:100BD000BA2EB8E0CB2E87E0D82E1CBEABBE8AB7AB
:100BE0001CBEBBBE9AB71CBECBBE2AB71CBEDBBEAA
:100BF0003AB73B832C839D838E83F70141917F011C
:100C000050E070E060E02AE08DE791E00E9462032E
:100C100060EC70E08DE791E00E94C4010E151F05A5
:100C2000E1F660E471E08DE791E00E9453030E94D9
:100C3000030268517C4F8F4F9F4F609379017093EF
:100C40007A0180937B0190937C012AE130E080E07F
:100C500090E0DC0140E050E968E870E06A017B0167
:100C6000F1E0CF22DD24EE24FF248C0D9D1DAE1D6E
:100C7000BF1D76956795579547952150310971F7B6
:100C8000A462B2628F839887A987BA8769E370E309
:100C90008AE392E00E9427038EE391E09A8389839E
:100CA00080EC8B8388EA8C8388E38D8385E68E8352
:100CB00049E350E3BE016F5F7F4F8AE392E00E94F9
:100CC000FB0244E050E0B8018AE392E00E94B102E6
:100CD0008AE392E00E94F0028EE3882E81E0982E53
:100CE00090ECA92EB0E02B2EB0E03B2EA4E0BA2E63
:100CF000E6B2F7B20E9403024090790150907A0167
:100D000060907B0170907C01461657066806790654
:100D100008F074C0C701B0E0A0E0F2E0880F991FAE
:100D2000AA1FBB1FFA95D1F79069A86A6C017D01D3
:100D30002AE130E040E050E0BA0126013701E1E06D
:100D40004E22552466247724440D551D661D771DBB
:100D5000F694E794D794C7942150310971F726E0AF
:100D6000880F991FAA1FBB1F2A95D1F76A017B0123
:100D7000C82AD92AEA2AFB2A63E471E08DE791E0C8
:100D80000E9453032AE0B701A6018DE791E00E947B
:100D9000620361E471E08DE791E00E945303CF822A
:100DA000D886E986FA869A828982AB82F8EAFC8341
:100DB00088E38D83E5E6EE8349E350E3BE016F5F90
:100DC0007F4F8AE392E00E94FB0244E050E0B801CA
:100DD0008AE392E00E94B1028AE392E00E94F0026C
:100DE0000E94030268517C4F8F4F9F4F609379019F
:100DF00070937A0180937B0190937C018AE392E067
:100E00000E947702181619060CF0BEC0E5E7F1E063
:100E10008B2D11928A95E9F744E050E065E771E087
:100E20008AE392E00E9421026DE471E08DE791E097
:100E30000E945303C0907701D0907801F12CE12CEF
:100E4000FE2CED2CDC2CCC2480917601C82AFE2CC3
:100E5000ED2CDC2CCC2480917501C82A2AE0B70146
:100E6000A6018DE791E00E94620361E471E08DE7E5
:100E700091E00E945303B701A60186E0769567953D
:100E8000579547958A95D1F72AE130E080E090E0C8
:100E9000DC012A013B01E1E04E225524662477243F
:100EA000840D951DA61DB71D769567955795479599
:100EB0002150310971F7B701A601EBE176956795ED
:100EC00057954795EA95D1F74370552766277727B9
:100ED000423051056105710509F056C0B701A60100
:100EE0004F7355276627772784179507A607B707F7
:100EF00009F04AC0D701C6015DE1B695A79597955F
:100F000087955A95D1F70197A105B105E9F5D70164
:100F1000C60149E1B695A795979587954A95D1F76A
:100F200083709927AA27BB270197A105B10561F511
:100F3000D701C60135E1B695A795979587953A955E
:100F4000D1F78F709927AA27BB270197A105B10573
:100F5000D9F4D701C60122E1B695A7959795879553
:100F60002A95D1F787709927AA27BB270197A10552
:100F7000B10551F461E671E0C6FE02C068E571E0BA
:100F80008DE791E00E9453032114310409F4B0CE9F
:100F90000E944101882309F4A9CE0E940000A2CE3C
:100FA000A1E21A2EAA1BBB1BFD010DC0AA1FBB1F6D
:100FB000EE1FFF1FA217B307E407F50720F0A21BDF
:100FC000B30BE40BF50B661F771F881F991F1A944C
:100FD00069F760957095809590959B01AC01BD0176
:100FE000CF010895EE0FFF1F0590F491E02D0994B5
:040FF000F894FFCFA3
:100FF400000000007701D7000401E301350113016B
:10100400270100000000DA02B10250031402200399
:101014005A021E0227031F03FB02F803F0027702A1
:101024002102490339033503120200000000AE0314
:101034000D0A0053656E64696E673A200052656359
:1010440069657665643A200048454154204F4E0A4C
:0C1054000048454154204F46460A000069
:00000001FF
