:100000000C94AD000C94D5000C94D5000C94D50044
:100010000C94D5000C94D5000C94D5000C94D5000C
:100020000C94D5000C94D5000C94D5000C94D500FC
:100030000C94D5000C94D5000C94D5000C94D500EC
:100040000C9451040C94D5000C941F040C94F903E7
:100050000C94D5000C94D5000C94D5000C94D500CC
:100060000C94D5000C94D5005A737574457468656A
:10007000726E65745544503A3A626567696E5061B4
:10008000636B657428636F6E73742063686172209C
:100090002A686F73742C2075696E7431365F742012
:1000A000706F7274293B206973206E6F74207375B2
:1000B00070706F727465642120536F7272792100C1
:1000C0002E004D7920495020616464726573733A43
:1000D00020005D0032303A31393A3035002C2000B2
:1000E0004A616E2032332032303232002C200043FD
:1000F0003A5C55736572735C4D696B6F6C616A5CD9
:10010000446F63756D656E74735C41726475696E7E
:100110006F5C576174657244697374726962757457
:100120006F72325C5761746572446973747269628C
:1001300075746F72322E696E6F005A737574206514
:100140007468207564702073657276657220696EBC
:1001500069742E2E2E205B009B0411241FBECFEF4E
:10016000D8E0DEBFCDBF11E0A0E0B1E0E4EAFEE000
:1001700002C005900D92A436B107D9F722E0A4E69B
:10018000B1E001C01D92AF34B207E1F710E0CDEA53
:10019000D0E004C02197FE010E944A07CC3AD10763
:1001A000C9F70E940E050C9450070C940000AF9202
:1001B000BF92CF92DF92EF92FF920F931F93CF9354
:1001C000DF936C017B018B01040F151FEB015E01B6
:1001D000AE18BF08C017D10759F06991D601ED914B
:1001E000FC910190F081E02DC6010995892B79F7EA
:1001F000C501DF91CF911F910F91FF90EF90DF909C
:10020000CF90BF90AF900895FC01538D448D252F62
:1002100030E0842F90E0821B930B541710F0CF96A0
:10022000089501970895FC01918D828D981761F0D2
:10023000A28DAE0FBF2FB11D5D968C91928D9F5FE9
:100240009F73928F90E008958FEF9FEF0895FC01C8
:10025000918D828D981731F0828DE80FF11D858D7B
:1002600090E008958FEF9FEF0895FC01918D228D0E
:10027000892F90E0805C9F4F821B91098F73992793
:10028000089581E791E00E94350121E0892B09F46E
:1002900020E0822F089580E090E0892B29F00E94D1
:1002A000410181110C9400000895FC01A48DA80F58
:1002B000B92FB11DA35ABF4F2C91848D90E00196A8
:1002C0008F739927848FA689B7892C93A089B189C8
:1002D0008C91837080648C93938D848D981306C069
:1002E0000288F389E02D80818F7D80830895EF92CD
:1002F000FF920F931F93CF93DF93EC0181E0888FE0
:100300009B8D8C8D98131AC0E889F989808185FFAF
:1003100015C09FB7F894EE89FF896083E889F98951
:1003200080818370806480839FBF81E090E0DF9153
:10033000CF911F910F91FF90EF900895F62E0B8DA6
:1003400010E00F5F1F4F0F731127E02E8C8D8E1161
:100350000CC00FB607FCFACFE889F989808185FFC8
:10036000F5CFCE010E945501F1CFEB8DEC0FFD2FA3
:10037000F11DE35AFF4FF0829FB7F8940B8FEA8983
:10038000FB8980818062CFCFEF92FF920F931F9302
:10039000CF93DF938C017B01D0E0C0E0F701EC0F3D
:1003A000FD1F6491662339F0C8010E947701892BF3
:1003B00011F02196F3CFCE01DF91CF911F910F91D4
:1003C000FF90EF900895CF93DF93EC01888D882301
:1003D000B9F0AA89BB89E889F9898C9185FD03C0A8
:1003E000808186FD0DC00FB607FCF7CF8C9185FF8D
:1003F000F2CF808185FFEDCFCE010E945501E9CF7C
:10040000DF91CF91089581E0089587E08CBF95EE4C
:100410009BBF1ABE8CBF86EE8BBF1ABE089590E0BC
:1004200080E0089597E09CBF87EE8BBF2AB79CBF02
:1004300088EE8BBF8AB7322F282F9CBF85EE8BBFEB
:100440008AB79CBF96EE9BBF9AB7892798278927C2
:10045000821B930B4817590708F4CA01A901475199
:10046000584FFB01DB01A80FB91FEA17FB0739F052
:100470005CBF4BBF6AB761934F5F5F4FF6CF280FEA
:10048000391F47E04CBF57EE5BBF3ABF4CBF38EE59
:100490003BBF2ABF0895CF93DF931F92CDB7DEB73E
:1004A000DC01ED91FC91028CF38DE02D41E050E0F8
:1004B000BE016F5F7F4F09951816190634F48981C4
:1004C00090E00F90DF91CF9108958FEF9FEFF9CFDC
:1004D000FC0197E09CBF85EE8BBF8AB79CBF26EEE0
:1004E0002BBF6AB79CBF27EE2BBF2AB79CBF98EEE5
:1004F0009BBF3AB71CBE90E19BBF9AB71CBE4FE0B2
:100500004BBF4AB71CBE5EE05BBF5AB71CBE7DE066
:100510007BBF7AB7708B518B428B938B1CBE91E162
:100520009BBF4AB71CBE92E19BBF9AB7542F492F7D
:10053000558B448B982F862F232732272327821B06
:10054000930B08951CBE83E18BBF8AB71CBE94E158
:100550009BBF9AB7892798278927FB019C012B5EAF
:100560003F4FDB01A40FB51FEA17FB0739F061917C
:100570003CBF2BBF6ABF2F5F3F4FF6CF480F591FBD
:100580001CBE83E18BBF5ABF1CBE84E18BBF4ABF38
:1005900090E080E00895CF93DF931F92CDB7DEB750
:1005A0006983DC01ED91FC910280F381E02D41E053
:1005B00050E0BE016F5F7F4F09950F90DF91CF91A3
:1005C00008951CBE1BBE8FEF8ABF1CBE1BBE82E0FF
:1005D0008ABF90E080E00895FB01328123819481FD
:1005E00085811CBE1BBE61E06ABF1CBE6DE06BBF97
:1005F0003ABF1CBE3EE03BBF2ABF1CBE2FE02BBF54
:100600009ABF1CBE90E19BBF8ABF1CBE81E18BBF1D
:100610005ABF1CBE82E18BBF4ABF81E090E00895C3
:100620000895DC01ED91FC91008CF18DE02D099491
:100630001CBE8BE08BBF7ABF1CBE8CE08BBF6ABF39
:100640001CBE1BBE83E08ABF81E00895FC01848943
:10065000958908952EE331E0FC0131832083FB016D
:100660004089518962897389FC0142835383648381
:1006700075830895DC01ED91FC91028CF38DE02DE2
:10068000099490E080E00895FB0101900020E9F7D3
:100690003197AF01461B570BDC01ED91FC910280B5
:1006A000F381E02D09948F929F92AF92BF92EF92C7
:1006B000FF920F931F93CF93DF93CDB7DEB7A19730
:1006C0000FB6F894DEBF0FBECDBF7C01FA01CB019F
:1006D00019A2223008F42AE08E010F5D1F4F822EEE
:1006E000912CB12CA12CBF01A50194010E942807D7
:1006F000F901CA016A300CF5605DD8016E938D0175
:10070000232B242B252B79F790E080E0109721F004
:10071000BD01C7010E944403A1960FB6F894DEBF45
:100720000FBECDBFDF91CF911F910F91FF90EF9042
:10073000BF90AF909F908F900895695CDECF8F92AD
:100740009F92AF92BF92CF92DF92EF92FF920F9360
:100750001F93CF93DF937C01EB016C0182E0C80E05
:10076000D11C4701E5E08E0E911C10E000E0F6017F
:1007700041916F0150E070E060E02AE0CE010E94FC
:1007800053035C01E881F9810190F081E02D6EE274
:10079000CE0109958A0D9B1D080F191FC814D90495
:1007A00031F7F701458150E070E060E02AE0CE01CA
:1007B0000E945303800F911FDF91CF911F910F91E2
:1007C000FF90EF90DF90CF90BF90AF909F908F9071
:1007D000089568E670E081E791E00E94C40160E45A
:1007E00071E081E791E00E944403989590E080E0F9
:1007F00008951F920F920FB60F9211242F933F93DB
:100800004F935F936F937F938F939F93AF93BF9318
:10081000EF93FF9381E791E00E945501FF91EF91E3
:10082000BF91AF919F918F917F916F915F914F9108
:100830003F912F910F900FBE0F901F9018951F9210
:100840000F920FB60F9211242F938F939F93EF93D4
:10085000FF93E0918101F09182018081E091870115
:10086000F091880182FD1BC0908180918A018F5F89
:100870008F7320918B01821741F0E0918A01F0E0A3
:10088000EF58FE4F958F80938A01FF91EF919F91D2
:100890008F912F910F900FBE0F901F901895808110
:1008A000F4CF1F920F920FB60F9211242F933F9304
:1008B0008F939F93AF93BF938091690190916A0149
:1008C000A0916B01B0916C013091680123E0230F7E
:1008D0002D3758F50196A11DB11D20936801809315
:1008E000690190936A01A0936B01B0936C018091B0
:1008F000640190916501A0916601B0916701019634
:10090000A11DB11D8093640190936501A0936601C0
:10091000B0936701BF91AF919F918F913F912F91BC
:100920000F900FBE0F901F90189526E8230F029688
:10093000A11DB11DD2CFE1E7F1E01382128248EE92
:1009400053E060E070E0448355836683778384E0FE
:1009500091E09183808385EC90E09587848784EC97
:1009600090E09787868780EC90E0918B808B81EC7C
:1009700090E0938B828B82EC90E0958B848B86EC5D
:1009800090E0978B868B118E128E138E148EEEE074
:10099000F2E08EE391E091838083128213821482CD
:1009A0001582ECE1F2E0918380831282138214823B
:1009B0001582E4E1F2E09183808312821382148233
:1009C0001582E2E2F2E09183808312821382148224
:1009D0001582E8E2F2E0918380831282138214820E
:1009E0001582E9E4F2E091838083128213821482FB
:1009F0001582EEE2F2E0138212824483558366830D
:100A0000778326E131E03183208397878687108AB8
:100A1000118A128A138A84E0808F0895CF93DF931E
:100A2000CDB7DEB72A970FB6F894DEBF0FBECDBFA5
:100A3000789484B5826084BD84B5816084BD85B5B9
:100A4000826085BD85B5816085BD80916E008160C5
:100A500080936E001092810080918100826080936B
:100A6000810080918100816080938100809180006D
:100A70008160809380008091B10084608093B10098
:100A80008091B00081608093B00080917A00846092
:100A900080937A0080917A00826080937A008091BE
:100AA0007A00816080937A0080917A0080688093D8
:100AB0007A001092C100E0918101F091820182E000
:100AC0008083E0917D01F0917E011082E0917F01B1
:100AD000F091800180E1808310928901E09185018D
:100AE000F091860186E08083E0918301F09184019A
:100AF000808180618083E0918301F0918401808115
:100B000088608083E0918301F09184018081806816
:100B10008083E0918301F091840180818F7D8083C7
:100B20006AE371E081E791E00E94C4016FEE70E03A
:100B300081E791E00E94C4016CEE70E081E791E0F2
:100B40000E94C40160EE70E081E791E00E94C40160
:100B50006DED70E081E791E00E94C40164ED70E00A
:100B600081E791E00E94C40162ED70E081E791E0CD
:100B70000E94C40160E471E081E791E00E944403B7
:100B800088E0809316028093170280931802809366
:100B9000190262EC70E081E791E00E94C4017E01DD
:100BA00083E0E80EF11C8E01095F1F4FFAE0AF2EC3
:100BB000A9E0BA2EB8E0CB2E87E0D82E1CBEABBE83
:100BC0008AB71CBEBBBE9AB71CBECBBE2AB71CBE22
:100BD000DBBE3AB73B832C839D838E83F701419123
:100BE0007F0150E070E060E02AE081E791E00E9440
:100BF000530360EC70E081E791E00E94C401E016CD
:100C0000F106E1F660E471E081E791E00E944403BF
:100C10002AE130E080E090E0DC0140E050E269E968
:100C200070E06A017B01F1E0CF22DD24EE24FF2495
:100C30008C0D9D1DAE1DBF1D7695679557954795EB
:100C40002150310971F7A864B6628F839887A9870C
:100C5000BA8769E370E38EE292E00E9418038EE3A4
:100C600091E09A83898380EC8B8388EA8C8388E384
:100C70008D8385E68E8349E350E3BE016F5F7F4F2E
:100C80008EE292E00E94EC0244E050E0B8018EE275
:100C900092E00E94A2028EE292E00E94E1029DE6B2
:100CA000A92E91E0B92E24E0922E00E010E08EE211
:100CB00092E00E946802181619060CF0BDC0F501FA
:100CC000892D11928A95E9F744E050E06DE671E0D4
:100CD0008EE292E00E94120263E471E081E791E00B
:100CE0000E944403C0906F01D0907001F12CE12C60
:100CF000FE2CED2CDC2CCC2480916E01C82AFE2C1D
:100D0000ED2CDC2CCC2480916D01C82A2AE0B7019F
:100D1000A60181E791E00E94530361E471E081E75D
:100D200091E00E944403B701A60186E0769567959D
:100D3000579547958A95D1F72AE130E080E090E019
:100D4000DC012A013B01E1E04E2255246624772490
:100D5000840D951DA61DB71D7695679557954795EA
:100D60002150310971F7B701A601EBE1769567953E
:100D700057954795EA95D1F743705527662777270A
:100D8000423051056105710509F056C0B701A60151
:100D90004F7355276627772784179507A607B70748
:100DA00009F04AC0D701C6015DE1B695A7959795B0
:100DB00087955A95D1F70197A105B105E9F5D701B6
:100DC000C60149E1B695A795979587954A95D1F7BC
:100DD00083709927AA27BB270397A105B10561F561
:100DE000D701C60135E1B695A795979587953A95B0
:100DF000D1F78F709927AA27BB270297A105B105C4
:100E0000D9F4D701C60122E1B695A79597958795A4
:100E10002A95D1F787709927AA27BB270297A105A2
:100E2000B10551F468E571E0C6FE02C06EE471E000
:100E300081E791E00E9444030115110509F437CFC1
:100E40000E944101882309F432CF0E9400002FCF75
:100E5000A1E21A2EAA1BBB1BFD010DC0AA1FBB1FBE
:100E6000EE1FFF1FA217B307E407F50720F0A21B30
:100E7000B30BE40BF50B661F771F881F991F1A949D
:100E800069F760957095809590959B01AC01BD01C7
:100E9000CF010895EE0FFF1F0590F491E02D099406
:040EA000F894FFCFF4
:100EA400000000007701D7000401E30135011301BC
:100EB400270100000000CB02A20241030502110336
:100EC4004B020F0218031003EC02E903E10268026B
:100ED40012023A032A0326030302000000009F03C0
:100EE4000D0A0052656369657665643A20005441D1
:100EF40050204F70656E0A0054415020436C6F734C
:040F0400650A00007A
:00000001FF
